:100000000000065F060000070300070300247E24AB
:100010007E2400242B6A12000063130864630036F8
:100020004956205000000703000000003E41000038
:100030000000413E000000083E1C3E080008083E4B
:1000400008080000E0600000000808080808000038
:1000500060600000002010080402003E5149453E47
:100060000000427F40000062514949460022494950
:100070004936001814127F10002F49494931003CBD
:100080004A4949300001710905030036494949369A
:1000900000064949291E00006C6C00000000EC6C51
:1000A000000000081422410000242424242400001D
:1000B00041221408000201590906003E415D551E07
:1000C000007E1111117E007F49494936003E4141B1
:1000D0004122007F4141413E007F49494941007F23
:1000E00009090901003E4149497A007F0808087F53
:1000F0000000417F410000304040403F007F081435
:100100002241007F40404040007F0204027F007F88
:100110000204087F003E4141413E007F0909090673
:10012000003E4151215E007F0909196600264949B8
:1001300049320001017F0101003F4040403F001F64
:100140002040201F003F403C403F006314081463E0
:1001500000070870080700714945430000007F410F
:100160004100000204081020000041417F0000040B
:10017000020102048080808080800000030700006C
:10018000002054545478007F444444380038444498
:10019000442800384444447F00385454540800082C
:1001A0007E0909000018A4A4A47C007F0404780040
:1001B0000000007D4000004080847D00007F10280A
:1001C00044000000007F4000007C04180478007C9C
:1001D0000404780000384444443800FC4444443863
:1001E0000038444444FC0044784404080008545453
:1001F000542000043E442400003C40207C00001CAD
:100200002040201C003C6030603C006C10106C00F2
:10021000009CA0603C00006454544C0000083E4127
:100220004100000000770000000041413E0800024C
:100230000102010013BA089523E023BB0895209121
:10024000600022BB08951F920F920FB60F921124E7
:100250002F933F934F935F936F937F938F939F93CE
:10026000AF93BF93EF93FF93EADFA0916300B09148
:100270006400AB2B29F0E0916300F09164000995D4
:10028000FF91EF91BF91AF919F918F917F916F916E
:100290005F914F913F912F910F900FBE0F901F9044
:1002A00018951F920F920FB60F9211242F933F9320
:1002B0004F935F936F937F938F939F93AF93BF936E
:1002C000EF93FF93B9DFA0916100B0916200AB2B77
:1002D00029F0E0916100F09162000995FF91EF91A2
:1002E000BF91AF919F918F917F916F915F914F914E
:1002F0003F912F910F900FBE0F901F90189523E004
:100300002EB9089521E029BF089522E025BB20E4FD
:100310002BBF0895CF93DF93CDB7DEB721970FB6EC
:10032000F894DEBF0FBECDBF482F30E0341778F40D
:1003300020E090E0198259815F5F59839F5F90327E
:10034000C8F32F5F2032A8F33F5F341788F321965C
:100350000FB6F894DEBF0FBECDBFDF91CF910895E9
:10036000909362008093610008958CB19DB11DB897
:100370001CB808959093640080936300089580935F
:100380006000089557DF08958093150086FF07C029
:10039000969A882314F4979A04C0979802C0969866
:1003A000F8CF0895C09AC0980895949A94980895A3
:1003B000959A9598089580E0E7DFF4DFF6DFF8DF9F
:1003C0000895CF93DF93C82FD62F8170C0FF15C03B
:1003D0008D2FDADFE7DF8C2F8270C1FF0CC08D2FED
:1003E000D3DFE3DF8C2F8470C2FF03C08D2FCCDFFF
:1003F00006C0CADF04C0C8DFF4CFC6DFEBCFD8DF4A
:10040000DF91CF910895CF92DF92FF920F931F93C8
:10041000CF93DF93D1E081E0C82ED12CFF2400E000
:1004200010E0C7E0C601002E02C0880F991F0A9491
:10043000E2F7682F8D2FC5DF88E06CDF0F5F1F4F5D
:10044000C15082F7C8E001E010E0C8010C2E02C0E4
:10045000880F991F0A94E2F7682F8D2FB2DF88E08A
:1004600059DFC15092F7F39481E08F15C0F6D80F91
:10047000D830A0F2D0E06FEF8D2FA3DF8FEF4ADFEF
:10048000DF5FD830C0F3D0E096DF8FEF43DF6FEF50
:1004900087E097DF8FEF3EDFDF5FD830A8F38BDF99
:1004A000DF91CF911F910F91FF90DF90CF90089532
:1004B00031E0309317002FE32093140020EF2093B6
:1004C00011000895F5DF9FDF1DDF1FDF18DF78942F
:1004D00008958BBF089589BF089547DF2EE2813EBE
:1004E000920738F0880F892F881F990B9195809576
:1004F00046DF0895209110012093110220E82093F7
:100500008E0010920F01E9DF089540911102A1E9D8
:10051000B1E0A40FB11D8C9137DF44DF309111029F
:10052000AFE8B0E0A30FB11D8C912EDF3EDF20912C
:100530001102A1E1B1E0A20FB11D8C9125DF38DFDE
:100540000895209111022F5F209311022091110232
:10055000222394F040918E00415040938E003091C0
:100560008E00332361F460910F016F5F60930F0180
:1005700050E850938E0003C010921102EBCF089503
:1005800020910F01222319F016DFFCDE02C0BDDF2F
:10059000D8DF08956F927F928F929F92AF92BF9211
:1005A000CF92DF92EF92FF920F931F93CF93DF933F
:1005B000CDB7DEB726970FB6F894DEBF0FBECDBF1E
:1005C000982F062F142F91320CF445C086E0980224
:1005D00090011124265C304046E050E0B901CE0184
:1005E0000196EFD0AA24C12E31E0C322E02EFF24D1
:1005F000D12E02E0D02234E0B32EB1228C2CD701D0
:10060000AF5EBE4F8D0137012FE830E0620E731EE2
:10061000A30197012F563E4FB9017E010894E11CBA
:10062000F11C9D2C9B2DF70181917F01882081F089
:10063000F9018083992049F0F3018083992311F017
:100640008C9310C0F801B0820DC0FA01D082F6CFB1
:10065000FB01C082EFCF1E821D821C821B821A8288
:100660001982C0CF0F5F1F4F11964F5F5F4F0894E5
:10067000611C711C6F5F7F4F2F5F3F4FA39485E01C
:100680008A1588F626960FB6F894DEBF0FBECDBF4A
:10069000DF91CF911F910F91FF90EF90DF90CF905E
:1006A000BF90AF909F908F907F906F900895FF9232
:1006B0000F931F93CF93DF93EC01F62E11E000E030
:1006C0002881222379F0202F2F0D412F622F88813E
:1006D00061DF0A5F1F5F183008F011E02196388152
:1006E000332389F7DF91CF911F910F91FF900895E8
:1006F000EF92FF920F931F93CF93DF937C01C62F4E
:10070000D1E000E01FC0D7011C91212F22952F704E
:10071000A22FBB27A959BF4F8C914D2F602F3ADFD5
:100720000A5F1F70A12FBB27A959BF4F8C914D2F76
:10073000602F30DF0A5FDF5FD83008F0D1E0089427
:10074000E11CF11C1C2FC1501123E9F6DF91CF9160
:100750001F910F91FF90EF900895882361F02091F1
:1007600010012F5F2093100120911001213880F09B
:10077000109210010DC030911001332331F05091CF
:10078000100151505093100103C04FE740931001E6
:10079000089560E087E790E08ADF0895CFE5D4E030
:1007A000DEBFCDBF8FDE8AE792E0DADD80EC92E03B
:1007B000E1DDEFDF60E881E0D0DF80E2ABDDFACFA2
:1007C000FFCFE62FF72FA82FB92F03C0C89531967A
:0A07D0000D9241505040D0F70895FB
:1007DA0080000000000000303132333435363738BB
:1007EA00396162636465665468652051756F74691E
:0E07FA006E672C20576869726C6564200000E1
:00000001FF
